{
  "_format": "hh-sol-artifact-1",
  "contractName": "DisasterFund",
  "sourceName": "contracts/DisasterFund.sol",
  "abi": [
    {
      "anonymous": false,
      "inputs": [
        {
          "indexed": true,
          "internalType": "uint256",
          "name": "campaignId",
          "type": "uint256"
        },
        {
          "indexed": true,
          "internalType": "address",
          "name": "owner",
          "type": "address"
        },
        {
          "indexed": false,
          "internalType": "uint256",
          "name": "goal",
          "type": "uint256"
        },
        {
          "indexed": false,
          "internalType": "string",
          "name": "title",
          "type": "string"
        }
      ],
      "name": "CampaignCreated",
      "type": "event"
    },
    {
      "anonymous": false,
      "inputs": [
        {
          "indexed": true,
          "internalType": "uint256",
          "name": "campaignId",
          "type": "uint256"
        },
        {
          "indexed": true,
          "internalType": "address",
          "name": "donor",
          "type": "address"
        },
        {
          "indexed": false,
          "internalType": "uint256",
          "name": "amount",
          "type": "uint256"
        }
      ],
      "name": "DonationReceived",
      "type": "event"
    },
    {
      "anonymous": false,
      "inputs": [
        {
          "indexed": true,
          "internalType": "uint256",
          "name": "campaignId",
          "type": "uint256"
        },
        {
          "indexed": true,
          "internalType": "address",
          "name": "owner",
          "type": "address"
        },
        {
          "indexed": false,
          "internalType": "uint256",
          "name": "amount",
          "type": "uint256"
        }
      ],
      "name": "FundsWithdrawn",
      "type": "event"
    },
    {
      "inputs": [],
      "name": "campaignCount",
      "outputs": [
        {
          "internalType": "uint256",
          "name": "",
          "type": "uint256"
        }
      ],
      "stateMutability": "view",
      "type": "function"
    },
    {
      "inputs": [
        {
          "internalType": "string",
          "name": "title",
          "type": "string"
        },
        {
          "internalType": "string",
          "name": "description",
          "type": "string"
        },
        {
          "internalType": "uint256",
          "name": "goal",
          "type": "uint256"
        }
      ],
      "name": "createCampaign",
      "outputs": [
        {
          "internalType": "uint256",
          "name": "campaignId",
          "type": "uint256"
        }
      ],
      "stateMutability": "nonpayable",
      "type": "function"
    },
    {
      "inputs": [
        {
          "internalType": "uint256",
          "name": "campaignId",
          "type": "uint256"
        }
      ],
      "name": "donate",
      "outputs": [],
      "stateMutability": "payable",
      "type": "function"
    },
    {
      "inputs": [
        {
          "internalType": "uint256",
          "name": "campaignId",
          "type": "uint256"
        }
      ],
      "name": "getCampaign",
      "outputs": [
        {
          "internalType": "address",
          "name": "owner",
          "type": "address"
        },
        {
          "internalType": "string",
          "name": "title",
          "type": "string"
        },
        {
          "internalType": "string",
          "name": "description",
          "type": "string"
        },
        {
          "internalType": "uint256",
          "name": "goal",
          "type": "uint256"
        },
        {
          "internalType": "uint256",
          "name": "raised",
          "type": "uint256"
        },
        {
          "internalType": "uint256",
          "name": "withdrawn",
          "type": "uint256"
        },
        {
          "internalType": "bool",
          "name": "active",
          "type": "bool"
        }
      ],
      "stateMutability": "view",
      "type": "function"
    },
    {
      "inputs": [
        {
          "internalType": "uint256",
          "name": "campaignId",
          "type": "uint256"
        },
        {
          "internalType": "bool",
          "name": "active",
          "type": "bool"
        }
      ],
      "name": "setActive",
      "outputs": [],
      "stateMutability": "nonpayable",
      "type": "function"
    },
    {
      "inputs": [
        {
          "internalType": "uint256",
          "name": "campaignId",
          "type": "uint256"
        },
        {
          "internalType": "uint256",
          "name": "amount",
          "type": "uint256"
        }
      ],
      "name": "withdraw",
      "outputs": [],
      "stateMutability": "nonpayable",
      "type": "function"
    }
  ],
  "bytecode": "0x6080604052348015600f57600080fd5b506117b98061001f6000396000f3fe6080604052600436106100555760003560e01c8063441a3e701461005a5780635598f8cc146100835780637274e30d146100c6578063e60a955d146100f1578063f14faf6f1461011a578063ffa56a5714610136575b600080fd5b34801561006657600080fd5b50610081600480360381019061007c9190610c89565b610173565b005b34801561008f57600080fd5b506100aa60048036038101906100a59190610cc9565b6104b2565b6040516100bd9796959493929190610df1565b60405180910390f35b3480156100d257600080fd5b506100db6106e7565b6040516100e89190610e6e565b60405180910390f35b3480156100fd57600080fd5b5061011860048036038101906101139190610eb5565b6106ed565b005b610134600480360381019061012f9190610cc9565b61084a565b005b34801561014257600080fd5b5061015d60048036038101906101589190610f5a565b6109f6565b60405161016a9190610e6e565b60405180910390f35b600081116101b6576040517f08c379a00000000000000000000000000000000000000000000000000000000081526004016101ad9061103b565b60405180910390fd5b6000600160008481526020019081526020016000209050600073ffffffffffffffffffffffffffffffffffffffff168160000160009054906101000a900473ffffffffffffffffffffffffffffffffffffffff1673ffffffffffffffffffffffffffffffffffffffff1603610260576040517f08c379a0000000000000000000000000000000000000000000000000000000008152600401610257906110a7565b60405180910390fd5b8060000160009054906101000a900473ffffffffffffffffffffffffffffffffffffffff1673ffffffffffffffffffffffffffffffffffffffff163373ffffffffffffffffffffffffffffffffffffffff16146102f2576040517f08c379a00000000000000000000000000000000000000000000000000000000081526004016102e990611113565b60405180910390fd5b6000816005015482600401546103089190611162565b90508083111561034d576040517f08c379a0000000000000000000000000000000000000000000000000000000008152600401610344906111e2565b60405180910390fd5b828260050160008282546103619190611202565b9250508190555060008260000160009054906101000a900473ffffffffffffffffffffffffffffffffffffffff1673ffffffffffffffffffffffffffffffffffffffff16846040516103b290611267565b60006040518083038185875af1925050503d80600081146103ef576040519150601f19603f3d011682016040523d82523d6000602084013e6103f4565b606091505b5050905080610438576040517f08c379a000000000000000000000000000000000000000000000000000000000815260040161042f906112c8565b60405180910390fd5b8260000160009054906101000a900473ffffffffffffffffffffffffffffffffffffffff1673ffffffffffffffffffffffffffffffffffffffff16857ff440aec6b52895984d061d622e6edeba6210f7c3e059be920663140c084560d7866040516104a39190610e6e565b60405180910390a35050505050565b60006060806000806000806000600160008a81526020019081526020016000209050600073ffffffffffffffffffffffffffffffffffffffff168160000160009054906101000a900473ffffffffffffffffffffffffffffffffffffffff1673ffffffffffffffffffffffffffffffffffffffff1603610567576040517f08c379a000000000000000000000000000000000000000000000000000000000815260040161055e906110a7565b60405180910390fd5b8060000160009054906101000a900473ffffffffffffffffffffffffffffffffffffffff1681600101826002018360030154846004015485600501548660060160009054906101000a900460ff168580546105c190611317565b80601f01602080910402602001604051908101604052809291908181526020018280546105ed90611317565b801561063a5780601f1061060f5761010080835404028352916020019161063a565b820191906000526020600020905b81548152906001019060200180831161061d57829003601f168201915b5050505050955084805461064d90611317565b80601f016020809104026020016040519081016040528092919081815260200182805461067990611317565b80156106c65780601f1061069b576101008083540402835291602001916106c6565b820191906000526020600020905b8154815290600101906020018083116106a957829003601f168201915b50505050509450975097509750975097509750975050919395979092949650565b60005481565b6000600160008481526020019081526020016000209050600073ffffffffffffffffffffffffffffffffffffffff168160000160009054906101000a900473ffffffffffffffffffffffffffffffffffffffff1673ffffffffffffffffffffffffffffffffffffffff1603610797576040517f08c379a000000000000000000000000000000000000000000000000000000000815260040161078e906110a7565b60405180910390fd5b8060000160009054906101000a900473ffffffffffffffffffffffffffffffffffffffff1673ffffffffffffffffffffffffffffffffffffffff163373ffffffffffffffffffffffffffffffffffffffff1614610829576040517f08c379a000000000000000000000000000000000000000000000000000000000815260040161082090611113565b60405180910390fd5b818160060160006101000a81548160ff021916908315150217905550505050565b6000341161088d576040517f08c379a00000000000000000000000000000000000000000000000000000000081526004016108849061103b565b60405180910390fd5b6000600160008381526020019081526020016000209050600073ffffffffffffffffffffffffffffffffffffffff168160000160009054906101000a900473ffffffffffffffffffffffffffffffffffffffff1673ffffffffffffffffffffffffffffffffffffffff1603610937576040517f08c379a000000000000000000000000000000000000000000000000000000000815260040161092e906110a7565b60405180910390fd5b8060060160009054906101000a900460ff16610988576040517f08c379a000000000000000000000000000000000000000000000000000000000815260040161097f90611394565b60405180910390fd5b3481600401600082825461099c9190611202565b925050819055503373ffffffffffffffffffffffffffffffffffffffff16827f0b5b4c52969ff7329ecf7ee536409fda87812b15a8622bc6e8cdeab3aee14a26346040516109ea9190610e6e565b60405180910390a35050565b6000808211610a3a576040517f08c379a0000000000000000000000000000000000000000000000000000000008152600401610a3190611400565b60405180910390fd5b6000808154610a4890611420565b91905081905590506040518060e001604052803373ffffffffffffffffffffffffffffffffffffffff16815260200187878080601f016020809104026020016040519081016040528093929190818152602001838380828437600081840152601f19601f82011690508083019250505050505050815260200185858080601f016020809104026020016040519081016040528093929190818152602001838380828437600081840152601f19601f8201169050808301925050505050505081526020018381526020016000815260200160008152602001600115158152506001600083815260200190815260200160002060008201518160000160006101000a81548173ffffffffffffffffffffffffffffffffffffffff021916908373ffffffffffffffffffffffffffffffffffffffff1602179055506020820151816001019081610b959190611643565b506040820151816002019081610bab9190611643565b50606082015181600301556080820151816004015560a0820151816005015560c08201518160060160006101000a81548160ff0219169083151502179055509050503373ffffffffffffffffffffffffffffffffffffffff16817fa0b75b3d48f1d411faf8eb6b3a6985271fc12369efb160c320304fbcfdc3f3b3848989604051610c3893929190611751565b60405180910390a395945050505050565b600080fd5b600080fd5b6000819050919050565b610c6681610c53565b8114610c7157600080fd5b50565b600081359050610c8381610c5d565b92915050565b60008060408385031215610ca057610c9f610c49565b5b6000610cae85828601610c74565b9250506020610cbf85828601610c74565b9150509250929050565b600060208284031215610cdf57610cde610c49565b5b6000610ced84828501610c74565b91505092915050565b600073ffffffffffffffffffffffffffffffffffffffff82169050919050565b6000610d2182610cf6565b9050919050565b610d3181610d16565b82525050565b600081519050919050565b600082825260208201905092915050565b60005b83811015610d71578082015181840152602081019050610d56565b60008484015250505050565b6000601f19601f8301169050919050565b6000610d9982610d37565b610da38185610d42565b9350610db3818560208601610d53565b610dbc81610d7d565b840191505092915050565b610dd081610c53565b82525050565b60008115159050919050565b610deb81610dd6565b82525050565b600060e082019050610e06600083018a610d28565b8181036020830152610e188189610d8e565b90508181036040830152610e2c8188610d8e565b9050610e3b6060830187610dc7565b610e486080830186610dc7565b610e5560a0830185610dc7565b610e6260c0830184610de2565b98975050505050505050565b6000602082019050610e836000830184610dc7565b92915050565b610e9281610dd6565b8114610e9d57600080fd5b50565b600081359050610eaf81610e89565b92915050565b60008060408385031215610ecc57610ecb610c49565b5b6000610eda85828601610c74565b9250506020610eeb85828601610ea0565b9150509250929050565b600080fd5b600080fd5b600080fd5b60008083601f840112610f1a57610f19610ef5565b5b8235905067ffffffffffffffff811115610f3757610f36610efa565b5b602083019150836001820283011115610f5357610f52610eff565b5b9250929050565b600080600080600060608688031215610f7657610f75610c49565b5b600086013567ffffffffffffffff811115610f9457610f93610c4e565b5b610fa088828901610f04565b9550955050602086013567ffffffffffffffff811115610fc357610fc2610c4e565b5b610fcf88828901610f04565b93509350506040610fe288828901610c74565b9150509295509295909350565b7f616d6f756e74206d757374206265203e20300000000000000000000000000000600082015250565b6000611025601283610d42565b915061103082610fef565b602082019050919050565b6000602082019050818103600083015261105481611018565b9050919050565b7f63616d706169676e206e6f7420666f756e640000000000000000000000000000600082015250565b6000611091601283610d42565b915061109c8261105b565b602082019050919050565b600060208201905081810360008301526110c081611084565b9050919050565b7f6e6f742063616d706169676e206f776e65720000000000000000000000000000600082015250565b60006110fd601283610d42565b9150611108826110c7565b602082019050919050565b6000602082019050818103600083015261112c816110f0565b9050919050565b7f4e487b7100000000000000000000000000000000000000000000000000000000600052601160045260246000fd5b600061116d82610c53565b915061117883610c53565b92508282039050818111156111905761118f611133565b5b92915050565b7f696e73756666696369656e7420617661696c61626c652066756e647300000000600082015250565b60006111cc601c83610d42565b91506111d782611196565b602082019050919050565b600060208201905081810360008301526111fb816111bf565b9050919050565b600061120d82610c53565b915061121883610c53565b92508282019050808211156112305761122f611133565b5b92915050565b600081905092915050565b50565b6000611251600083611236565b915061125c82611241565b600082019050919050565b600061127282611244565b9150819050919050565b7f7472616e73666572206661696c65640000000000000000000000000000000000600082015250565b60006112b2600f83610d42565b91506112bd8261127c565b602082019050919050565b600060208201905081810360008301526112e1816112a5565b9050919050565b7f4e487b7100000000000000000000000000000000000000000000000000000000600052602260045260246000fd5b6000600282049050600182168061132f57607f821691505b602082108103611342576113416112e8565b5b50919050565b7f63616d706169676e20696e616374697665000000000000000000000000000000600082015250565b600061137e601183610d42565b915061138982611348565b602082019050919050565b600060208201905081810360008301526113ad81611371565b9050919050565b7f676f616c206d757374206265203e203000000000000000000000000000000000600082015250565b60006113ea601083610d42565b91506113f5826113b4565b602082019050919050565b60006020820190508181036000830152611419816113dd565b9050919050565b600061142b82610c53565b91507fffffffffffffffffffffffffffffffffffffffffffffffffffffffffffffffff820361145d5761145c611133565b5b600182019050919050565b7f4e487b7100000000000000000000000000000000000000000000000000000000600052604160045260246000fd5b60008190508160005260206000209050919050565b60006020601f8301049050919050565b600082821b905092915050565b6000600883026114f97fffffffffffffffffffffffffffffffffffffffffffffffffffffffffffffffff826114bc565b61150386836114bc565b95508019841693508086168417925050509392505050565b6000819050919050565b600061154061153b61153684610c53565b61151b565b610c53565b9050919050565b6000819050919050565b61155a83611525565b61156e61156682611547565b8484546114c9565b825550505050565b600090565b611583611576565b61158e818484611551565b505050565b5b818110156115b2576115a760008261157b565b600181019050611594565b5050565b601f8211156115f7576115c881611497565b6115d1846114ac565b810160208510156115e0578190505b6115f46115ec856114ac565b830182611593565b50505b505050565b600082821c905092915050565b600061161a600019846008026115fc565b1980831691505092915050565b60006116338383611609565b9150826002028217905092915050565b61164c82610d37565b67ffffffffffffffff81111561166557611664611468565b5b61166f8254611317565b61167a8282856115b6565b600060209050601f8311600181146116ad576000841561169b578287015190505b6116a58582611627565b86555061170d565b601f1984166116bb86611497565b60005b828110156116e3578489015182556001820191506020850194506020810190506116be565b8683101561170057848901516116fc601f891682611609565b8355505b6001600288020188555050505b505050505050565b82818337600083830152505050565b60006117308385610d42565b935061173d838584611715565b61174683610d7d565b840190509392505050565b60006040820190506117666000830186610dc7565b8181036020830152611779818486611724565b905094935050505056fea2646970667358221220cfc8a170db8d2f27b399851fad069537a080f13dafde105395ea4a1d03b111f564736f6c634300081c0033",
  "linkReferences": {},
  "deployedLinkReferences": {}
}